:100000000C9434000C9451000C9451000C94510049
:100010000C9451000C9451000C9451000C9451001C
:100020000C9451000C9451000C9451000C9451000C
:100030000C9451000C9451000C9451000C945100FC
:100040000C9451000C9451000C9453000C945100EA
:100050000C9451000C9451000C9451000C945100DC
:100060000C9451000C94510011241FBECFEFD8E026
:10007000DEBFCDBF11E0A0E0B1E0ECE9F2E002C0EC
:1000800005900D92A833B107D9F721E0A8E3B1E0BC
:1000900001C01D92AA33B207E1F70E94B1000C948F
:1000A0004C010C9400001F920F920FB60F92112476
:1000B0002F933F934F935F936F937F938F939F9370
:1000C000AF93BF93EF93FF930E942F0180930001A2
:1000D0008B3579F42091380130913901232B49F483
:1000E0008093010181E090E0909339018093380181
:1000F00027C0909101019B3519F52091380130916D
:10010000390112161306E4F48B35A1F0F901EF5F03
:10011000FE4F80832F5F3F4F30933901209338018A
:100120000FC081932E173F07E1F71092390110920B
:10013000380106C0E1E0F1E02BE031E080E3F1CFEF
:10014000FF91EF91BF91AF919F918F917F916F91AF
:100150005F914F913F912F910F900FBE0F901F9085
:1001600018950E941B018BE091E00E9437018DE001
:100170000E9427018AE00E9427010E9446010F2E5B
:10018000F1E0AF2EF1E0BF2EF02DCBE0D1E010E397
:1001900078942FEF83ED90E3215080409040E1F779
:1001A00000C00000F894F50180818B35D9F5818578
:1001B0008D35F1F40F2EF1E0EF2EF1E0FF2EF02D52
:1001C0006701F60181916F010E942701CC15DD05C1
:1001D000C1F71092390110923801F70111937F0194
:1001E000CE17DF07D1F781E191E00E943701D0CF30
:1001F0008091380190913901181619069CF484E118
:1002000091E00E94370181E191E00E943701109254
:10021000390110923801E1E0F1E01193CE17DF07C8
:10022000E1F7B6CF85E291E00E94370181E191E0EC
:100230000E943701ADCF1092C50087E68093C400BD
:1002400088E18093C10086E08093C2000895E0ECCD
:10025000F0E0908195FFFDCF8093C6000895E0EC1B
:10026000F0E080818823ECF78091C6000895CF9359
:10027000DF93EC018881882331F021960E942701C9
:1002800089918111FBCFDF91CF910895E1ECF0E0EE
:0C0290008081806880830895F894FFCF7F
:10029C003F3030303030303030303048454C4C4FBF
:1002AC00000D0A00436F6D616E646F20496E7661BC
:1002BC006C69646F004167756164616E646F2043A3
:0802CC006F6D616E646F0000AC
:00000001FF
