:100000000C9434000C9451000C9451000C94510049
:100010000C9451000C9451000C9451000C9451001C
:100020000C9451000C9451000C9451000C9451000C
:100030000C9451000C9451000C9451000C945100FC
:100040000C9451000C9451000C94BA000C94510083
:100050000C9451000C9451000C9451000C945100DC
:100060000C9451000C94510011241FBECFEFD8E026
:10007000DEBFCDBF11E0A0E0B1E0E4E8FDE002C0EA
:1000800005900D92AC35B107D9F721E0ACE5B1E0B0
:1000900001C01D92A036B207E1F70E9418010C942E
:1000A000C0060C94000083E090E00E94730690E08C
:1000B00090935D0180935C010E94330380915C0109
:1000C00090915D010E943F0385E090E00E947306DD
:1000D00090E090935D0180935C010E94E602809124
:1000E0005C0190915D010E94EE0286E090E00E942A
:1000F000730690E090935D0180935C010E94D002B2
:1001000080915C0190915D010E94D80289E090E0AD
:100110000E94730690E090935D0180935C010E94C1
:10012000FB0280915C0190915D010E9407038AE0CF
:1001300090E00E94730690E090935D0180935C01D3
:100140000E94170380915C0190915D010E9423033E
:100150008BE090E00E94730690E090935D018093A5
:100160005C010E944D0380915C0190915D010E94B1
:10017000590308951F920F920FB60F9211242F93D7
:100180003F934F935F936F937F938F939F93AF931F
:10019000BF93EF93FF930E947B03809300018B3505
:1001A00079F420915E0130915F01232B49F4809313
:1001B000010181E090E090935F0180935E0127C090
:1001C000909101019B3519F520915E0130915F01FD
:1001D00012161306E4F48B35A1F0F901EF5FFE4F20
:1001E00080832F5F3F4F30935F0120935E010FC0EC
:1001F00081932E173F07E1F710925F0110925E0185
:1002000006C0E1E0F1E02BE031E080E3F1CFFF91C7
:10021000EF91BF91AF919F918F917F916F915F917E
:100220004F913F912F910F900FBE0F901F901895F7
:10023000CF93DF9300D01F92CDB7DEB70E94670344
:100240008BE091E00E9483038DE00E9473038AE0BB
:100250000E9473030E94920381E191E00E94830354
:1002600087E491E00E9483038FEF8AB91BB82FEFD8
:1002700083E294EF215080409040E1F700C00000FD
:100280000E9453000F2EF1E0AF2EF1E0BF2EF02DB3
:100290000BE011E00F2EF0E33F2EF02D0F2EF4E6D1
:1002A0002F2EF02D0F2EFBE36F2EF1E07F2EF02D81
:1002B000FE0131964F010F2EFCE54F2EF1E05F2E2F
:1002C000F02D7894FFEF23ED80E3F1502040804043
:1002D000E1F700C00000F894F50180818B3589F7C3
:1002E00081858D3509F027C10F2EF1E0EF2EF1E069
:1002F000FF2EF02D6701F60181916F010E947303BB
:100300000C151D05C1F783E291E00E948303F501FE
:100310008181803509F0FCC085818F3509F0F8C0F6
:10032000868190E0C097289E9001299E300D11246F
:10033000878190E0C097AC01440F551F880F991F2B
:10034000880F991F880F991F840F951F820F931F85
:10035000208530E020533109820F931F90935D0177
:1003600080935C0186E291E00E948303F501828123
:100370000E947303F50183810E947303F501848158
:100380000E9473038DE291E00E94830380915D01DE
:100390008F9380915C018F937F926F929F928F9247
:1003A0000E94C003C4010E9483038EE391E00E9477
:1003B000830320915C0130915D01229EC001239E48
:1003C000900D11246FEF70E00E94980360935C0120
:1003D00070935D017F936F937F926F929F928F9244
:1003E0000E94C003C4010E94830386E491E00E943E
:1003F000830381E191E00E94830387E491E00E94FE
:1004000083030FB6F894DEBF0FBECDBFF501828126
:10041000843409F06CC08381803309F0B5C09481C5
:10042000963309F0ABC080915C0190915D010E9410
:10043000D802F201608186E090E00E947B0670C0E5
:1004400080915C0190915D010E94EE02F201608159
:1004500085E090E00E947B0663C0F50194819933AA
:1004600009F096C080915C0190915D010E940703A4
:10047000F201608189E090E00E947B0651C08133E7
:1004800009F08AC0F50194819033F1F480915C0108
:1004900090915D010E942303F20160818AE090E067
:1004A0000E947B063DC0F5018481833301F5809174
:1004B0005C0190915D010E943F03F201608183E045
:1004C00090E00E947B062CC0813389F4F501848181
:1004D000813369F480915C0190915D010E94590320
:1004E000F20160818BE090E00E947B0619C08BE4F2
:1004F00091E00E94830383E291E00E94830381E103
:1005000091E00E94830387E491E00E94830308C086
:100510008BE491E00E94830383E291E00E948303D5
:1005200010925F0110925E01F70131927F010E1768
:100530001F07D1F7C6CE80915E0190915F0118161A
:1005400019060CF0BECE8BE491E00E94830383E297
:1005500091E00E94830381E191E00E94830387E49C
:1005600091E00E94830310925F0110925E01E1E02E
:10057000F1E031920E171F07E1F7A3CEF501948148
:10058000953309F06ACF5CCF803309F078CF65CF1F
:10059000803309F099CF87CF803309F0A8CF83CF7C
:1005A000569A84B5836884BD85B5826085BD0895FB
:1005B0002FEFAC01249FC001259F900D112464E60C
:1005C00070E00E94980367BD68BD0895559A84B590
:1005D000836284BD85B5826085BD08952FEFAC012F
:1005E000249FC001259F900D112464E670E00E94B5
:1005F000980368BD0895219AE0E8F0E08081816A5F
:100600008083E1E8F0E080818A60808308952FEFA5
:10061000AC01249FC001259F900D112464E670E079
:100620000E94980370938900609388000895229A2D
:10063000E0E8F0E08081816A8083E1E8F0E0808199
:100640008A60808308952FEFAC01249FC001259F0D
:10065000900D112464E670E00E94980370938B0063
:1006600060938A000895539AE0EBF0E08081836202
:100670008083E1EBF0E080818260808308952FEF3A
:10068000AC01249FC001259F900D112464E670E009
:100690000E9498036093B4000895239AE0EBF0E081
:1006A000808183688083E1EBF0E0808182608083D9
:1006B00008952FEFAC01249FC001259F900D1124B8
:1006C00064E670E00E9498036093B300089510926E
:1006D000C50087E68093C40088E18093C10086E06E
:1006E0008093C2000895E0ECF0E0908195FFFDCF8B
:1006F0008093C6000895E0ECF0E080818823ECF759
:100700008091C6000895CF93DF93EC018881882300
:1007100031F021960E94730389918111FBCFDF9103
:10072000CF910895E1ECF0E08081806880830895A6
:1007300097FB072E16F4009407D077FD09D00E948E
:10074000AC0307FC05D03EF4909581959F4F08952A
:10075000709561957F4F0895AA1BBB1B51E107C09F
:10076000AA1FBB1FA617B70710F0A61BB70B881F41
:10077000991F5A95A9F780959095BC01CD010895D0
:10078000AEE0B0E0E6ECF3E00C9497060D891E892C
:1007900086E08C831A8309838FEF9FE79E838D8386
:1007A000AE01475E5F4F6F89788DCE0101960E9442
:1007B000E203EF81F885E00FF11F10822E96E4E04E
:1007C0000C94B306ABE0B0E0E8EEF3E00C948906DD
:1007D0006C017B018A01FC0117821682838181FFF3
:1007E000CCC1CE0101963C01F6019381F70193FD46
:1007F000859193FF81917F01882309F4BAC18532E5
:1008000039F493FD859193FF81917F01853229F41D
:10081000B60190E00E94D905E7CF912C212C312C14
:10082000FFE1F315D8F08B3279F038F4803279F0AB
:100830008332A1F4232D20611DC08D3261F08033FD
:1008400069F4232D216016C0832D8260382EE32D9C
:10085000E4603E2E2AC0F32DF8601DC037FC2DC089
:1008600020ED280F2A3040F08E32B9F436FC81C1D9
:10087000232D2064322E19C036FE06C08AE0989ED1
:10088000200D1124922E11C0EAE02E9E200D11247D
:10089000222EF32DF0623F2E08C08C3621F4832DDA
:1008A0008068382E02C0883641F4F70193FD8591A7
:1008B00093FF81917F018111B3CF982F9F7D955434
:1008C000933028F40C5F1F4F9FE399830DC083364C
:1008D00031F0833771F0833509F059C021C0F80138
:1008E000808189830E5F1F4F88248394912C53014C
:1008F00013C02801F2E04F0E511CF801A080B18016
:1009000036FE03C0692D70E002C06FEF7FEFC501B6
:100910000E94CE054C018201F32DFF773F2E16C0B9
:10092000280122E0420E511CF801A080B18036FE61
:1009300003C0692D70E002C06FEF7FEFC5010E9418
:10094000C3054C01F32DF0683F2E820133FC1BC020
:10095000822D90E088169906B0F4B60180E290E00E
:100960000E94D9052A94F4CFF50137FC859137FE12
:1009700081915F01B60190E00E94D90521102A946F
:1009800021E0821A91088114910471F7E8C084363D
:1009900011F0893641F5F80137FE07C06081718199
:1009A000828193810C5F1F4F08C060817181072E87
:1009B000000C880B990B0E5F1F4FF32DFF763F2E17
:1009C00097FF09C090958095709561957F4F8F4FE7
:1009D0009F4FF0683F2E2AE030E0A3010E941506E9
:1009E000882E861845C0853731F4232D2F7EB22EF0
:1009F0002AE030E025C0932D997FB92E8F36C1F0C3
:100A000018F4883579F0B5C0803719F0883721F0AF
:100A1000B0C0E92FE061BE2EB4FE0DC0FB2DF46026
:100A2000BF2E09C034FE0AC0292F2660B22E06C090
:100A300028E030E005C020E130E002C020E132E0F3
:100A4000F801B7FE07C060817181828193810C5FDC
:100A50001F4F06C06081718180E090E00E5F1F4FE4
:100A6000A3010E941506882E8618FB2DFF773F2EC6
:100A700036FE0DC0232D2E7FA22E891458F434FE8D
:100A80000BC032FC09C0832D8E7EA82E05C0B82C69
:100A9000A32C03C0B82C01C0B92CA4FE0FC0FE01CA
:100AA000E80DF11D8081803321F49A2D997EA92EC5
:100AB00009C0A2FE06C0B394B39404C08A2D867800
:100AC00009F0B394A3FC11C0A0FE06C0B21488F4D0
:100AD000280C922C9B180EC0B21460F4B60180E270
:100AE00090E00E94D905B394F7CFB21418F42B18F4
:100AF00002C0982C212CA4FE10C0B60180E390E027
:100B00000E94D905A2FE17C0A1FC03C088E790E0AF
:100B100002C088E590E0B6010CC08A2D867859F0B5
:100B2000A1FE02C08BE201C080E2A7FC8DE2B6010B
:100B300090E00E94D905891438F4B60180E390E072
:100B40000E94D9059A94F7CF8A94F301E80DF11D1C
:100B50008081B60190E00E94D9058110F5CF222056
:100B600009F442CEB60180E290E00E94D9052A94B1
:100B7000F6CFF6018681978102C08FEF9FEF2B960B
:100B8000E2E10C94A506FC01059061507040011053
:100B9000D8F7809590958E0F9F1F0895FC016150A6
:100BA000704001900110D8F7809590958E0F9F1F8F
:100BB00008950F931F93CF93DF93FB01238121FDB2
:100BC00003C08FEF9FEF2CC022FF16C046815781D4
:100BD000248135814217530744F4A081B1819D01DE
:100BE0002F5F3F4F318320838C93268137812F5F86
:100BF0003F4F3783268314C08B01EC01FB01008437
:100C0000F185E02D0995892BE1F6D80116968D9195
:100C10009C911797019617969C938E931697CE01E9
:100C2000DF91CF911F910F910895FA01AA272830E3
:100C300051F1203181F1E8946F936E7F6E5F7F4FA9
:100C40008F4F9F4FAF4FB1E03ED0B4E03CD0670F25
:100C5000781F891F9A1FA11D680F791F8A1F911D78
:100C6000A11D6A0F711D811D911DA11D20D009F4C8
:100C700068943F912AE0269F11243019305D31930A
:100C8000DEF6CF010895462F4770405D4193B3E0F3
:100C90000FD0C9F7F6CF462F4F70405D4A3318F09A
:100CA000495D31FD4052419302D0A9F7EACFB4E04B
:100CB000A6959795879577956795BA95C9F7009703
:100CC0006105710508959B01AC010A2E06945795A4
:100CD000479537952795BA95C9F7620F731F841FFB
:100CE000951FA01D0895F999FECF92BD81BDF89A78
:100CF000992780B50895262FF999FECF1FBA92BD86
:100D000081BD20BD0FB6F894FA9AF99A0FBE0196EC
:100D100008952F923F924F925F926F927F928F929F
:100D20009F92AF92BF92CF92DF92EF92FF920F937A
:100D30001F93CF93DF93CDB7DEB7CA1BDB0B0FB684
:100D4000F894DEBF0FBECDBF09942A883988488841
:100D50005F846E847D848C849B84AA84B984C884D7
:100D6000DF80EE80FD800C811B81AA81B981CE0FCE
:100D7000D11D0FB6F894DEBF0FBECDBFED010895B3
:040D8000F894FFCF15
:100D84003F3030303030303030303048454C4C4FCC
:100D9400004167756164616E646F20436F6D616EBD
:100DA400646F000D0A0050696E6F3A200020436F93
:100DB4006D2050574D2064653A200025640020457D
:100DC4006D20253A2000250D0A0A00436F6D616EDF
:0C0DD400646F20496E76616C69646F00EA
:00000001FF
