:100000000C9434000C943E000C943E000C943E0082
:100010000C943E000C943E000C943E000C943E0068
:100020000C943E000C943E000C943E000C943E0058
:100030000C943E000C943E000C943E000C943E0048
:100040000C943E000C943E000C943E000C943E0038
:100050000C943E000C943E000C943E000C943E0028
:100060000C943E000C943E0011241FBECFEFD8E04C
:10007000DEBFCDBF0E9440000C9459000C940000DC
:100080008FE084B981E085B991E085B1883011F4C1
:1000900095B905C0289B03C085B1880F85B92FEF9E
:1000A00033EC89E0215030408040E1F700C000008F
:0600B000ECCFF894FFCF35
:00000001FF
