S010000054657374654C43442E737265633C
S11300000C9434000C9449000C9449000C9449005D
S11300100C9449000C9449000C9449000C94490038
S11300200C9449000C9449000C9449000C94490028
S11300300C9449000C9449000C9449000C94490018
S11300400C9449000C9449000C9437010C94490019
S11300500C9449000C9449000C9449000C944900F8
S11300600C9449000C94490011241FBECFEFD8E032
S1130070DEBFCDBF11E0A0E0B1E0E6E8F9E002C0E8
S113008005900D92A031B107D9F70E945D010C943F
S1130090C1040C94000080E480937C0087E8809382
S11300A07A000895ECE7F0E09081987F8770892BBF
S11300B08083EAE7F0E0808180648083808186FD2C
S11300C0FDCF8091780090917900089585ED8A950F
S11300D0F1F70000299A85ED8A95F1F70000299837
S11300E085ED8A95F1F700000895CF93C62F80FD22
S11300F0289A80FF28988FE39FE10197F1F700C0C9
S1130100000064FB882780F980FD5C9A80FF5C987E
S113011065FB882780F980FD5D9A80FF5D9866FB0A
S1130120882780F980FD5E9A80FF5E98862F881F5D
S11301308827881F80FD5F9A80FF5F980E94660071
S1130140C295C07FC4FB882780F980FD5C9A80FF3C
S11301505C98C5FB882780F980FD5D9A80FF5D98D7
S1130160C6FB882780F980FD5E9A80FF5E98CC1FCD
S1130170CC27CC1FC0FD5F9AC0FF5F980E94660029
S1130180CF910895682F80E00E9475000895549AD5
S11301905C98559A5D98569A5E98579A5F98219AFA
S11301A02898209A28982FEF81EE94E021508040DF
S11301B09040E1F700C000005C9A5D9A0E946600DE
S11301C00E9466000E9466008FE99FE00197F1F7A4
S11301D000C000005C985D9A0E9466000E94660060
S11301E00E9466008FE99FE00197F1F700C00000CC
S11301F088E20E94C2008CE00E94C20086E00E9455
S1130200C20081E00E94C2009FEF21EE84E0915081
S113021020408040E1F700C000000895CF93DF93B1
S1130220FC016081662341F0EC01219681E00E948B
S1130230750069916111FACFDF91CF910895CF9341
S1130240DF93EA012898813019F0823031F009C037
S1130250615880E00E94750004C0615480E00E94EF
S11302607500CE010E940E01DF91CF9108951F9277
S11302700F920FB60F9211242F933F934F935F93D6
S11302806F937F938F939F93AF93BF93EF93FF935A
S11302900E94BA010E94B201FF91EF91BF91AF9108
S11302A09F918F917F916F915F914F913F912F918A
S11302B00F900FBE0F901F901895CF93DF9300D02F
S11302C000D000D0CDB7DEB70E94A60180E091E057
S11302D00E94C2010E94D1010E944B000E94C700EB
S11302E081E00E94C20046E051E062E081E00E94A9
S11302F01F010F2EF9E0EF2EF1E0FF2EF02D8E01FD
S11303000F5F1F4F80E00E9452009F938F93FF92D4
S1130310EF921F930F930E94D7012FEF81EE94E089
S1130320215080409040E1F700C00000F894C801DB
S11303300E94C20178948CE091E00E94C2010F9067
S11303400F900F900F900F900F90DCCF1092C5007C
S113035087E68093C40088E18093C10086E080939F
S1130360C2000895E0ECF0E0908195FFFDCF80930A
S1130370C6000895E0ECF0E080818823ECF78091DA
S1130380C6000895CF93DF93EC018881882331F070
S113039021960E94B20189918111FBCFDF91CF9107
S11303A00895E1ECF0E08081806880830895AEE0F8
S11303B0B0E0EDEDF1E00C9498040D891E8986E01F
S11303C08C831A8309838FEF9FE79E838D83AE010D
S11303D0475E5F4F6F89788DCE0101960E94F901C7
S11303E0EF81F885E00FF11F10822E96E4E00C9463
S11303F0B404ABE0B0E0EFEFF1E00C948A046C01DC
S11304007B018A01FC0117821682838181FFCCC1A2
S1130410CE0101963C01F6019381F70193FD85918C
S113042093FF81917F01882309F4BAC1853239F49D
S113043093FD859193FF81917F01853229F4B60163
S113044090E00E94F003E7CF912C212C312CFFE1A6
S1130450F315D8F08B3279F038F4803279F08332A6
S1130460A1F4232D20611DC08D3261F0803369F425
S1130470232D216016C0832D8260382EE32DE46085
S11304803E2E2AC0F32DF8601DC037FC2DC020ED90
S1130490280F2A3040F08E32B9F436FC81C1232D66
S11304A02064322E19C036FE06C08AE0989E200DC4
S11304B01124922E11C0EAE02E9E200D1124222E2A
S11304C0F32DF0623F2E08C08C3621F4832D806812
S11304D0382E02C0883641F4F70193FD859193FFCD
S11304E081917F018111B3CF982F9F7D95549330D3
S11304F028F40C5F1F4F9FE399830DC0833631F0BE
S1130500833771F0833509F059C021C0F801808127
S113051089830E5F1F4F88248394912C530113C049
S11305202801F2E04F0E511CF801A080B18036FE84
S113053003C0692D70E002C06FEF7FEFC5010E9418
S1130540E5034C018201F32DFF773F2E16C02801ED
S113055022E0420E511CF801A080B18036FE03C097
S1130560692D70E002C06FEF7FEFC5010E94DA03CE
S11305704C01F32DF0683F2E820133FC1BC0822D09
S113058090E088169906B0F4B60180E290E00E94EB
S1130590F0032A94F4CFF50137FC859137FE81915D
S11305A05F01B60190E00E94F00321102A9421E03B
S11305B0821A91088114910471F7E8C0843611F00D
S11305C0893641F5F80137FE07C060817181828167
S11305D093810C5F1F4F08C060817181072E000C4E
S11305E0880B990B0E5F1F4FF32DFF763F2E97FF5D
S11305F009C090958095709561957F4F8F4F9F4F5F
S1130600F0683F2E2AE030E0A3010E942C04882EDB
S1130610861845C0853731F4232D2F7EB22E2AE06B
S113062030E025C0932D997FB92E8F36C1F018F490
S1130630883579F0B5C0803719F0883721F0B0C01B
S1130640E92FE061BE2EB4FE0DC0FB2DF460BF2E79
S113065009C034FE0AC0292F2660B22E06C028E045
S113066030E005C020E130E002C020E132E0F801D2
S1130670B7FE07C060817181828193810C5F1F4F37
S113068006C06081718180E090E00E5F1F4FA3017E
S11306900E942C04882E8618FB2DFF773F2E36FEF1
S11306A00DC0232D2E7FA22E891458F434FE0BC0C6
S11306B032FC09C0832D8E7EA82E05C0B82CA32C35
S11306C003C0B82C01C0B92CA4FE0FC0FE01E80D74
S11306D0F11D8081803321F49A2D997EA92E09C0C1
S11306E0A2FE06C0B394B39404C08A2D867809F0A0
S11306F0B394A3FC11C0A0FE06C0B21488F4280C65
S1130700922C9B180EC0B21460F4B60180E290E003
S11307100E94F003B394F7CFB21418F42B1802C05C
S1130720982C212CA4FE10C0B60180E390E00E9416
S1130730F003A2FE17C0A1FC03C088E790E002C04A
S113074088E590E0B6010CC08A2D867859F0A1FEA8
S113075002C08BE201C080E2A7FC8DE2B60190E00A
S11307600E94F003891438F4B60180E390E00E94FB
S1130770F0039A94F7CF8A94F301E80DF11D808178
S1130780B60190E00E94F0038110F5CF222009F415
S113079042CEB60180E290E00E94F0032A94F6CFA4
S11307A0F6018681978102C08FEF9FEF2B96E2E1DD
S11307B00C94A604FC010590615070400110D8F718
S11307C0809590958E0F9F1F0895FC016150704095
S11307D001900110D8F7809590958E0F9F1F089572
S11307E00F931F93CF93DF93FB01238121FD03C05C
S11307F08FEF9FEF2CC022FF16C0468157812481C2
S113080035814217530744F4A081B1819D012F5FC4
S11308103F4F318320838C93268137812F5F3F4F55
S11308203783268314C08B01EC01FB010084F1851E
S1130830E02D0995892BE1F6D80116968D919C91AE
S11308401797019617969C938E931697CE01DF9176
S1130850CF911F910F910895FA01AA27283051F1E1
S1130860203181F1E8946F936E7F6E5F7F4F8F4FDD
S11308709F4FAF4FB1E03ED0B4E03CD0670F781F3C
S1130880891F9A1FA11D680F791F8A1F911DA11D21
S11308906A0F711D811D911DA11D20D009F468945A
S11308A03F912AE0269F11243019305D3193DEF602
S11308B0CF010895462F4770405D4193B3E00FD0B8
S11308C0C9F7F6CF462F4F70405D4A3318F0495DA3
S11308D031FD4052419302D0A9F7EACFB4E0A69586
S11308E09795879577956795BA95C9F700976105A8
S11308F0710508959B01AC010A2E069457954795FE
S113090037952795BA95C9F7620F731F841F951FF2
S1130910A01D08952F923F924F925F926F927F9203
S11309208F929F92AF92BF92CF92DF92EF92FF92FB
S11309300F931F93CF93DF93CDB7DEB7CA1BDB0BA7
S11309400FB6F894DEBF0FBECDBF09942A8839884C
S113095048885F846E847D848C849B84AA84B98453
S1130960C884DF80EE80FD800C811B81AA81B9815F
S1130970CE0FD11D0FB6F894DEBF0FBECDBFED0173
S10909800895F894FFCF76
S113098648454C4C4F004F49002564000D0A0000B1
S9030000FC
