S0100000746573746550574D2E73726563FB
S11300000C9434000C9446000C9446000C94460066
S11300100C9446000C9446000C9446000C94460044
S11300200C9446000C9446000C9446000C94460034
S11300300C9446000C9446000C9446000C94460024
S11300400C9446000C9446000C9446000C94460014
S11300500C9446000C9446000C9446000C94460004
S11300600C9446000C94460011241FBECFEFD8E038
S1130070DEBFCDBF21E0A0E0B1E001C01D92A230FF
S1130080B207E1F70E9448000C94B3000C940000FE
S11300908FEF84B981E085B90E947600C1E0809138
S11300A00001909101010E947E008FE19EE401977E
S11300B0F1F700C0000080910001909101010196C8
S11300C08F3F910509F02CF4909301018093000176
S11300D004C0109201011092000185B1883011F41E
S11300E0C5B9DDCF85B1880F85B9D9CF569A84B506
S11300F0836884BD85B5826085BD08952FEFAC010A
S1130100249FC001259F900D112464E670E00E9495
S11301108B0067BD089597FB072E16F4009407D053
S113012077FD09D00E949F0007FC05D03EF490950E
S113013081959F4F0895709561957F4F0895AA1BEF
S1130140BB1B51E107C0AA1FBB1FA617B70710F0BE
S1130150A61BB70B881F991F5A95A9F780959095F0
S10D0160BC01CD010895F894FFCF0F
S9030000FC
