:100000000C9434000C9451000C9451000C94510049
:100010000C9451000C9451000C9451000C9451001C
:100020000C9451000C9451000C9451000C9451000C
:100030000C9451000C9451000C9451000C945100FC
:100040000C9451000C9451000C9451000C945100EC
:100050000C9451000C9451000C9451000C945100DC
:100060000C9451000C94510011241FBECFEFD8E026
:10007000DEBFCDBF11E0A0E0B1E0EEE7F9E002C0E5
:1000800005900D92A63BB107D9F721E0A6EBB1E0B0
:1000900001C01D92A53CB207E1F70E94D7000C9465
:1000A000BD040C9400004B9B07C081E090E090934E
:1000B000BB018093BA0104C01092BB011092BA0137
:1000C0008091BA019091BB012091BC013091BD019A
:1000D0008217930709F460C04C9B07C021E030E011
:1000E0003093B9012093B80104C01092B901109265
:1000F000B8012091B8013091B9018217930761F4DA
:100100008091BE018F5F8093BE0181E090E090936B
:10011000B7018093B60109C01092B7011092B601E1
:100120008091BE0181508093BE0180E091E00E94E9
:10013000C4018091B6019091B701892B29F081E12A
:1001400091E00E94C40104C08CE091E00E94C401CF
:100150008BE191E00E94C4018091BE01282F082EFE
:10016000000C330B3F938F9382E391E09F938F9327
:100170008FEB91E09F938F930E94D3018FEB91E0DF
:100180000E94C40185E391E00E94C4010F900F908A
:100190000F900F900F900F908091BA019091BB013A
:1001A0009093BD018093BC018091BE0108951AB85F
:1001B0008FEF84B915B80E94B0014B9B12C081E04B
:1001C00090E09093BD018093BC010F2EF5E0EF2EDF
:1001D000F02D6894FF24F2F803E012E0D1E0CFEFB5
:1001E00005C01092BD011092BC01EFCF0E945300D8
:1001F0008093C4019091C301911112C08830B9F568
:100200002FEF30E742E0215030404040E1F700C09E
:1002100000008AE391E00E94C401D093C30189C029
:10022000913089F486C08FEF90E722E081509040B2
:100230002040E1F700C0000080E591E00E94C40189
:100240001093C3017CC0923009F479C010C03FEF15
:1002500040E782E0315040408040E1F700C00000BC
:1002600085E691E00E94C4010093C3016EC08091B5
:10027000C301833009F469C010C09FEF20E732E06A
:10028000915020403040E1F700C000008BE791E042
:100290000E94C401F092C3015DC08091C30184300B
:1002A00009F458C010C04FEF80E792E04150804001
:1002B0009040E1F700C000008FE891E00E94C40187
:1002C000E092C30104C08091C301853091F4809114
:1002D000C40181118BCF2FEF30E742E02150304035
:1002E0004040E1F700C0000083EA91E00E94C401B1
:1002F00005C08091C301863009F078CF1092C30108
:100300008AE090E0C5B92FEF31EE44E02150304053
:100310004040E1F700C0000015B82FEF31EE44E097
:10032000215030404040E1F700C00000019751F7F4
:100330005DCF8091C4018E3F09F0AFCF74CF809123
:10034000C401883009F0BFCF82CF8091C4018730CB
:1003500081F693CF8091C401813109F047CFA3CFBB
:100360001092C50087E68093C40088E18093C100A5
:1003700086E08093C2000895E0ECF0E0908195FF64
:10038000FDCF8093C6000895CF93DF93EC01888161
:10039000882331F021960E94BC0189918111FBCF05
:1003A000DF91CF910895AEE0B0E0E9EDF1E00C947B
:1003B00094040D891E8986E08C831A8309838FEF4C
:1003C0009FE79E838D83AE01475E5F4F6F89788D77
:1003D000CE0101960E94F501EF81F885E00FF11F33
:1003E00010822E96E4E00C94B004ABE0B0E0EBEFAA
:1003F000F1E00C9486046C017B018A01FC011782F8
:100400001682838181FFCCC1CE0101963C01F601A9
:100410009381F70193FD859193FF81917F0188235B
:1004200009F4BAC1853239F493FD859193FF819126
:100430007F01853229F4B60190E00E94EC03E7CFFA
:10044000912C212C312CFFE1F315D8F08B3279F06F
:1004500038F4803279F08332A1F4232D20611DC05D
:100460008D3261F0803369F4232D216016C0832D15
:100470008260382EE32DE4603E2E2AC0F32DF86012
:100480001DC037FC2DC020ED280F2A3040F08E32E1
:10049000B9F436FC81C1232D2064322E19C036FEFA
:1004A00006C08AE0989E200D1124922E11C0EAE029
:1004B0002E9E200D1124222EF32DF0623F2E08C017
:1004C0008C3621F4832D8068382E02C0883641F4A2
:1004D000F70193FD859193FF81917F018111B3CF46
:1004E000982F9F7D9554933028F40C5F1F4F9FE306
:1004F00099830DC0833631F0833771F0833509F06D
:1005000059C021C0F801808189830E5F1F4F882464
:100510008394912C530113C02801F2E04F0E511C1B
:10052000F801A080B18036FE03C0692D70E002C0E2
:100530006FEF7FEFC5010E94E1034C018201F32DB3
:10054000FF773F2E16C0280122E0420E511CF80111
:10055000A080B18036FE03C0692D70E002C06FEF4D
:100560007FEFC5010E94D6034C01F32DF0683F2EAA
:10057000820133FC1BC0822D90E088169906B0F4EE
:10058000B60180E290E00E94EC032A94F4CFF501DA
:1005900037FC859137FE81915F01B60190E00E94A2
:1005A000EC0321102A9421E0821A9108811491040D
:1005B00071F7E8C0843611F0893641F5F80137FE4D
:1005C00007C060817181828193810C5F1F4F08C0D9
:1005D00060817181072E000C880B990B0E5F1F4FF5
:1005E000F32DFF763F2E97FF09C09095809570956B
:1005F00061957F4F8F4F9F4FF0683F2E2AE030E08C
:10060000A3010E942804882E861845C0853731F43E
:10061000232D2F7EB22E2AE030E025C0932D997F26
:10062000B92E8F36C1F018F4883579F0B5C080370F
:1006300019F0883721F0B0C0E92FE061BE2EB4FE7A
:100640000DC0FB2DF460BF2E09C034FE0AC0292F57
:100650002660B22E06C028E030E005C020E130E080
:1006600002C020E132E0F801B7FE07C0608171816D
:10067000828193810C5F1F4F06C06081718180E091
:1006800090E00E5F1F4FA3010E942804882E861859
:10069000FB2DFF773F2E36FE0DC0232D2E7FA22E81
:1006A000891458F434FE0BC032FC09C0832D8E7EB1
:1006B000A82E05C0B82CA32C03C0B82C01C0B92C9F
:1006C000A4FE0FC0FE01E80DF11D8081803321F4EE
:1006D0009A2D997EA92E09C0A2FE06C0B394B394A8
:1006E00004C08A2D867809F0B394A3FC11C0A0FE43
:1006F00006C0B21488F4280C922C9B180EC0B214B9
:1007000060F4B60180E290E00E94EC03B394F7CF6E
:10071000B21418F42B1802C0982C212CA4FE10C07F
:10072000B60180E390E00E94EC03A2FE17C0A1FC9A
:1007300003C088E790E002C088E590E0B6010CC0F5
:100740008A2D867859F0A1FE02C08BE201C080E2BA
:10075000A7FC8DE2B60190E00E94EC03891438F406
:10076000B60180E390E00E94EC039A94F7CF8A945C
:10077000F301E80DF11D8081B60190E00E94EC03C9
:100780008110F5CF222009F442CEB60180E290E03C
:100790000E94EC032A94F6CFF6018681978102C06D
:1007A0008FEF9FEF2B96E2E10C94A204FC010590E1
:1007B000615070400110D8F7809590958E0F9F1F63
:1007C0000895FC016150704001900110D8F78095A8
:1007D00090958E0F9F1F08950F931F93CF93DF93D4
:1007E000FB01238121FD03C08FEF9FEF2CC022FF6F
:1007F00016C046815781248135814217530744F43E
:10080000A081B1819D012F5F3F4F318320838C9365
:10081000268137812F5F3F4F3783268314C08B019A
:10082000EC01FB010084F185E02D0995892BE1F6AF
:10083000D80116968D919C911797019617969C93C7
:100840008E931697CE01DF91CF911F910F9108954E
:10085000FA01AA27283051F1203181F1E8946F93F1
:100860006E7F6E5F7F4F8F4F9F4FAF4FB1E03ED097
:10087000B4E03CD0670F781F891F9A1FA11D680F35
:10088000791F8A1F911DA11D6A0F711D811D911D68
:10089000A11D20D009F468943F912AE0269F1124DD
:1008A0003019305D3193DEF6CF010895462F477041
:1008B000405D4193B3E00FD0C9F7F6CF462F4F709C
:1008C000405D4A3318F0495D31FD4052419302D0FA
:1008D000A9F7EACFB4E0A6959795879577956795A0
:1008E000BA95C9F700976105710508959B01AC01A0
:1008F0000A2E06945795479537952795BA95C9F7C7
:10090000620F731F841F951FA01D08952F923F92A1
:100910004F925F926F927F928F929F92AF92BF920F
:10092000CF92DF92EF92FF920F931F93CF93DF93BB
:10093000CDB7DEB7CA1BDB0B0FB6F894DEBF0FBE18
:10094000CDBF09942A88398848885F846E847D8465
:100950008C849B84AA84B984C884DF80EE80FD8067
:100960000C811B81AA81B981CE0FD11D0FB6F894DD
:0E097000DEBF0FBECDBFED010895F894FFCF9E
:10097E002D20526F746163616F3A2000616E74694D
:10098E002D486F726172696F0D0A002D20506F73C2
:10099E006963616F20646F20456E636F6465723AA0
:1009AE0020002564000D0A0D0A000D0A202D50723C
:1009BE00696D656972612053454E4841204F4B0069
:1009CE000D0A202D536567756E64612053454E48A0
:1009DE0041204F4B000D0A202D54657263656972DC
:1009EE00612053454E4841204F4B000D0A202D519A
:1009FE0075617274612053454E4841204F4B000D76
:100A0E000A202D5175696E74612053454E48412060
:100A1E004F4B000D0A202D53657874612053454EBF
:060A2E004841204F4B007F
:00000001FF
