:100000000C9434000C9449000C9449000C94490061
:100010000C9449000C9449000C9449000C9449003C
:100020000C9449000C9449000C9449000C9449002C
:100030000C9449000C9449000C9449000C9449001C
:100040000C9449000C9449000C9449000C9449000C
:100050000C9449000C9449000C9449000C944900FC
:100060000C9449000C94490011241FBECFEFD8E036
:10007000DEBFCDBF11E0A0E0B1E0ECE0F1E002C0F6
:1000800005900D92AE30B107D9F70E944B000C9449
:1000900084000C94000080E284B90E946100C0E2F8
:1000A00085B18C2785B92FEF89E698E121508040F2
:1000B0009040E1F700C0000080E091E00E947500F0
:1000C000EFCF1092C50087E68093C40088E180934B
:1000D000C10086E08093C2000895E0ECF0E09081DA
:1000E00095FFFDCF8093C6000895CF93DF93EC0179
:1000F0008881882331F021960E946D0089918111B9
:0C010000FBCFDF91CF910895F894FFCF62
:0E010C0048656C6C6F20576F726C640A0000BF
:00000001FF
